{
  "contractName": "Evidence",
  "abi": [
    {
      "constant": true,
      "inputs": [],
      "name": "receiver",
      "outputs": [
        {
          "name": "",
          "type": "address"
        }
      ],
      "payable": false,
      "stateMutability": "view",
      "type": "function"
    },
    {
      "inputs": [
        {
          "name": "_image",
          "type": "uint256"
        },
        {
          "name": "_lat",
          "type": "int256"
        },
        {
          "name": "_long",
          "type": "int256"
        },
        {
          "name": "_price",
          "type": "uint256"
        },
        {
          "name": "_desc",
          "type": "string"
        },
        {
          "name": "_receiver",
          "type": "address"
        },
        {
          "name": "_violation_type",
          "type": "uint256"
        }
      ],
      "payable": false,
      "stateMutability": "nonpayable",
      "type": "constructor"
    },
    {
      "constant": false,
      "inputs": [],
      "name": "preview",
      "outputs": [
        {
          "name": "_image",
          "type": "uint256"
        }
      ],
      "payable": false,
      "stateMutability": "nonpayable",
      "type": "function"
    },
    {
      "constant": false,
      "inputs": [],
      "name": "purchase",
      "outputs": [],
      "payable": false,
      "stateMutability": "nonpayable",
      "type": "function"
    }
  ],
  "bytecode": "0x6060604052341561000f57600080fd5b6040516103e33803806103e383398101604052808051906020019091908051906020019091908051906020019091908051906020019091908051820191906020018051906020019091908051906020019091905050336000806101000a81548173ffffffffffffffffffffffffffffffffffffffff021916908373ffffffffffffffffffffffffffffffffffffffff16021790555081600160006101000a81548173ffffffffffffffffffffffffffffffffffffffff021916908373ffffffffffffffffffffffffffffffffffffffff1602179055508560028190555084600381905550836008819055508260059080519060200190610110929190610168565b5080600681905550836008819055506000600760006101000a81548160ff0219169083151502179055506000600760016101000a81548160ff021916908315150217905550866004819055505050505050505061020d565b828054600181600116156101000203166002900490600052602060002090601f016020900481019282601f106101a957805160ff19168380011785556101d7565b828001600101855582156101d7579182015b828111156101d65782518255916020019190600101906101bb565b5b5090506101e491906101e8565b5090565b61020a91905b808211156102065760008160009055506001016101ee565b5090565b90565b6101c78061021c6000396000f300606060405260043610610057576000357c0100000000000000000000000000000000000000000000000000000000900463ffffffff16806364edfbf01461005c578063efae230514610071578063f7260d3e1461009a575b600080fd5b341561006757600080fd5b61006f6100ef565b005b341561007c57600080fd5b61008461010c565b6040518082815260200191505060405180910390f35b34156100a557600080fd5b6100ad610175565b604051808273ffffffffffffffffffffffffffffffffffffffff1673ffffffffffffffffffffffffffffffffffffffff16815260200191505060405180910390f35b6001600760006101000a81548160ff021916908315150217905550565b600060011515600760009054906101000a900460ff1615151415610134576004549050610172565b60001515600760019054906101000a900460ff1615151415610171576001600760016101000a81548160ff02191690831515021790555060045490505b5b90565b600160009054906101000a900473ffffffffffffffffffffffffffffffffffffffff16815600a165627a7a72305820da606d98b8794f42abaf83531f145c97e664acf49d9f2348e94e4947a482102c0029",
  "source": "pragma solidity ^0.4.2;\n\ncontract Evidence {\n  address private creator;\n  address public receiver;\n  int latitude; //assume 8 decimal points\n  int longitude; //assume 8 decimal points\n  uint image;\n  string description;\n  uint violation_type;\n  bool bought;\n  bool previewed;\n  uint price; //in Ether, assume 8 decimal places\n\n  // modifier restricted() {\n  //   if (msg.sender == owner) _;\n  // }\n\n  function Evidence(uint _image, int _lat, int _long, uint _price, string _desc, address _receiver, uint _violation_type) public {\n    // constructor\n    creator = msg.sender;\n    receiver = _receiver;\n\n    latitude = _lat;\n    longitude = _long;\n\n    price = _price;\n\n    description = _desc;\n\n    violation_type = _violation_type;\n\n    price = _price;\n\n    bought = false;\n    previewed = false;\n\n    image = _image;\n\n  }\n\n  function preview() public returns (uint _image) {\n    if (bought == true){\n      // if person checking is the receiver? Can we check that?\n      _image = image;\n    } else {\n      if (previewed == false){\n        previewed = true;\n        _image = image;\n      }\n    }\n  }\n\n  function purchase() public {\n    bought = true;\n  }\n\n}\n",
  "sourcePath": "/Users/neel/Git/witnesschain-server/contracts/Evidence.sol",
  "compiler": {
    "name": "solc",
    "version": "0.4.21+commit.dfe3193c.Emscripten.clang"
  },
  "schemaVersion": "2.0.0",
  "updatedAt": "2018-04-01T20:18:14.809Z"
}